:04000000BBEF00F062
:060008004282EDEF07F05B
:100018004280D8CFDBF0E8CFDCF0E0CFDDF0D9CFFD
:10002800DEF0DACFDFF0F3CFE0F0F4CFE1F09EA01E
:1000380071D0D80ECF6EEF0ECE6EB6EC0DF02BC091
:100048001DF02CC01EF029C01FF02AC020F094EC2F
:100058000EF02F501D24236E30501E20246E010EEA
:100068002B24256E000E2C20266E95EC0CF023C058
:1000780029F024C02AF02BC01DF02CC01EF027C088
:100088001FF028C020F094EC0EF02D501D24236E94
:100098002E501E20246E010E2B24256E000E2C20BF
:1000A800266E95EC0CF023C027F024C028F02B4ACC
:1000B8002C2A4150D96FDA6B2B50D9192AE12C50D0
:1000C800DA19D8A426D029C0D1F02AC0D2F03EC06F
:1000D800D3F064EC0AF0D1C098F0D2C099F027C0F0
:1000E800D1F028C0D2F03FC0D3F064EC0AF0D1C000
:1000F80096F0D2C097F0000E2A6E000E296E000E00
:10010800286E000E276E000E2C6E000E2B6E010E50
:100118009C6F9E909EAA1BD0000E3524D96EDA6A79
:10012800010EDA22AECFDFFF3550600FD96EDA6AE2
:10013800010EDF6E010E35241D6E1E6A000E1E2292
:10014800C5C01FF0206AFEEC0BF01D50356EE1C0F3
:10015800F4FFE0C0F3FFDFC0DAFFDEC0D9FFDDC087
:10016800E0FFDCC0E8FFDBC0D8FF429010001CEFC6
:100178000BF020EC0FF062EC0FF054EC0FF0D4EC25
:100188000EF0E1EC0EF026EC0EF0000E0101556FBA
:10019800000E606F000E5C6F000E536F000E526F02
:1001A800000E576F000E566F000E596F000E586FF5
:1001B800000E616F010E4F6F000E5B6F000E5A6FDD
:1001C800000E516F640E506F000E5E6F000E5F6F71
:1001D800000E00019C6F000E2C6E000E2B6E000EA0
:1001E800346E020E2BEC0FF03F6E030E2BEC0FF06B
:1001F8003E6E33502BEC0FF03B6E40502BEC0FF063
:100208003A6E3FC032F14D0E0CEC0EF03F6E3EC020
:1002180032F14D0E0CEC0EF03E6E3BC032F1540E36
:100228000CEC0EF03B6E3AC032F1540E0CEC0EF0B2
:100238003A6E3B50E2EC0AF046C138F047C139F05B
:100248003A50E2EC0AF046C136F047C137F038C000
:10025800E8F039C0E9F03C50385C0001E66F3D50E9
:100268003958E76F36C0E4F037C0E5F03C50365CEB
:10027800E26F3D503758E36F34EC0FF0460E5BECFD
:100288000FF0070E0101336FD00E326FD4EC0DF072
:10029800615144EC08F018D300019C05D8A414D38C
:1002A800000E9C6F9651E85D9751E959D8B006D079
:1002B80001015E51D8A402D0010E0CD00001E65114
:1002C800965DE7519759D8B006D001015E05D8A4CC
:1002D80002D0000E5E6F00019851E45D9951E55916
:1002E800D8B006D001015F51D8A402D0010E0CD0BD
:1002F8000001E251985DE3519959D8B006D0010147
:100308005F05D8A402D0000E5F6F01014F05D8A485
:10031800B0D16151D8B408D0020E6119D8B404D054
:10032800040E6119D8A40FD061C132F1336BA4EC6B
:100338000AF0E806D8B403D0615144EC08F0000E86
:100348005B6F000E5A6F5F51D8A4BED25E51D8A41D
:10035800BBD2000E0FD0F28861C137F1386BDEECEA
:1003680005F001015F05D8A407D05E05D8A404D024
:10037800020E0AD14F6FA8D25F05D8A48CD0000115
:10038800E651965DE7519759D8B004D0010E0101A6
:10039800616F81D001015A4B5B2B5A51505D5B5103
:1003A8005159D8A0F3D790D26BEC0FF061C137F157
:1003B8000101386BDEEC05F001015F51D8A413D0C0
:1003C8005E51D8A410D061C132F1336BA4EC0AF0AD
:1003D800E806D8A403D0000E616F38D0000E536F22
:1003E800000E526F33D098C03CF199C03DF1E2C085
:1003F8003EF1E3C03FF195EC09F03CC158F13DC135
:1004080059F196C03CF197C03DF1E6C03EF1E7C016
:100418003FF195EC09F03CC156F13DC157F158C187
:1004280032F159C133F156C134F157C135F108ECF5
:100438000FF05C6F5C05D8A405D058C152F159C1C2
:1004480053F104D056C152F157C153F15CC13FF189
:1004580052C140F153C141F1615170EC04F034D202
:10046800F28861C137F1386BDEEC05F001015F05F8
:10047800D8A405D05E05D8A402D0040E85D05F05A7
:10048800D8A409D00001E651965DE7519759D8B034
:1004980007D0030E7CD7000E5B6F000E5A6F14D284
:1004A80001015A4B5B2B5A51505D5B515159D8A0F1
:1004B800F0D70AD26BEC0FF061C137F10101386B4C
:1004C800DEEC05F001015F51D8A413D05E51D8A429
:1004D80010D061C132F1336BA4EC0AF0E806D8A45D
:1004E80003D0020E616F38D0000E536F000E526FAA
:1004F80033D098C03CF199C03DF1E2C03EF1E3C071
:100508003FF195EC09F03CC158F13DC159F196C055
:100518003CF197C03DF1E6C03EF1E7C03FF195ECF4
:1005280009F03CC156F13DC157F158C132F159C1EA
:1005380033F156C134F157C135F108EC0FF05C6F57
:100548005C05D8A405D058C152F159C153F104D063
:1005580056C152F157C153F15CC13FF152C140F14C
:1005680053C141F1615170EC04F0AED1F28861C120
:1005780037F1386BDEEC05F001015F05D8A407D030
:100588005E05D8A404D0000E616F010EF3D65F0596
:10059800D8A481D70001E651965DE7519759D8B0A4
:1005A80002D0050EF4D601015A4B5B2B5A51505D0F
:1005B8005B515159D8A0F5D787D16BEC0FF061C1C9
:1005C80037F10101386BDEEC05F001015F51D8A469
:1005D80013D05E51D8A410D061C132F1336BA4ECB2
:1005E8000AF0E806D8A403D0040E616F38D0000ED4
:1005F800536F000E526F33D098C03CF199C03DF153
:10060800E2C03EF1E3C03FF195EC09F03CC158F17E
:100618003DC159F196C03CF197C03DF1E6C03EF1AD
:10062800E7C03FF195EC09F03CC156F13DC157F1E7
:1006380058C132F159C133F156C134F157C135F1BE
:1006480008EC0FF05C6F5C05D8A405D058C152F1D6
:1006580059C153F104D056C152F157C153F15CC18D
:100668003FF152C140F153C141F1615170EC04F0C6
:100678002BD16151000AD8B46ED6010AD8B494D6E9
:10068800030AD8B4EDD6010AD8B414D7070AD8B4E7
:100698006DD7010AD8B491D717D18EEC0BF0546FEF
:1006A800AA0E5419D8A402D0010ED4D0BB0E5419E6
:1006B800D8A402D0030ECED05429D8A402D0050E57
:1006C800C9D0EE0E5419D8A402D0070EC3D0CC0E50
:1006D8005419D8A402D0090EBDD0DD0E5419D8A4DF
:1006E800F3D00B0EB7D08EEC0BF0606F020EB2D0C9
:1006F8008EEC0BF05D6FAA0E5D19D8A409D060C10D
:100708003BF03BC032F1335058EC0EF0010E326E24
:10071800000E01019FD08EEC0BF0606F040E9AD092
:100728008EEC0BF05D6FBB0E5D19D8A4F1D760C1DC
:100738003AF03AC032F1405058EC0EF0010E316EEA
:10074800E7D78EEC0BF0606F060E84D08EEC0BF0C2
:100758005D6F5D29D8A4DCD7AA0E6019D8A404D08F
:100768003B505BEC0FF0D4D7BB0E6019D8A404D073
:100778003A505BEC0FF0CCD7CC0E6019D8A404D05B
:100788003F505BEC0FF0C4D7DD0E6019D8A4C0D77A
:100798003E505BEC0FF0BCD78EEC0BF0606F080E90
:1007A80059D08EEC0BF05D6FEE0E5D19D8A436D0E3
:1007B8006BEC0FF0E8EC0CF0AA0E6019D8A407D087
:1007C80096C038F197C039F114EC0FF01FD0BB0E6A
:1007D8006019D8A407D098C038F199C039F114EC41
:1007E8000FF014D0EE0E6019D8A410D098C032F1D2
:1007F80099C033F196C034F197C035F12FEC0DF064
:1008080032C138F133C139F114EC0FF08EEC0BF032
:100818004E6FEF0E4E19D8A4CDD7F288430E30ECA8
:1008280007F076D78EEC0BF0606F0A0E13D08EECC3
:100838000BF05D6FCC0E5D19D8A46AD760C13FF08C
:100848003FC032F1020E58EC0EF062D78EEC0BF07E
:10085800606F0C0E556F38D08EEC0BF05D6FDD0EAF
:100868005D19D8A455D760C13EF03EC032F1030EE1
:1008780058EC0EF04DD701015551000AD8B40DD7E8
:10088800010AD8B430D7030AD8B432D7010AD8B489
:1008980042D7070AD8B444D7010AD8B452D7030AB2
:1008A800D8B454D7010AD8B477D70F0AD8B479D7AF
:1008B800010AD8B4B7D7030AD8B4B9D7010AD8B44B
:1008C800C5D7070AD8B4C8D73450000AD8B4E4D476
:1008D800010AD8B4D0D7F8D7426F000E0101446F8F
:1008E800280E436F000E336F280E326F40C134F16B
:1008F80041C135F181EC0EF032C138F133C139F123
:10090800000E3B6F640E3A6FBFEC0CF038C145F136
:1009180039C146F1000E336F780E326F40C134F1A1
:1009280041C135F181EC0EF032C138F133C139F1F2
:10093800000E3B6F640E3A6FBFEC0CF038C14AF101
:1009480039C14BF1020E4B5DD8A003D0010E4B6F9D
:100958004A69A7EC0EF023D10001A951935DD8A0F4
:1009680004D001013F05D8B409D000019351B85D06
:10097800D8A00ED001013F51D8A40AD0010E336F80
:10098800000E356F000E346F3F51F1EC0DF020D0A2
:1009980001013F05D8A404D07D0E0001946104D064
:1009A80001013F51D8A40BD0010E0101336F40C1A2
:1009B80034F141C135F13F51F1EC0DF009D0010E90
:1009C800336F45C134F146C135F13F51F1EC0DF0BB
:1009D8000001AA51945DD8A004D001013F05D8B404
:1009E80009D000019451B95DD8A00ED001013F5142
:1009F800D8A40AD0020E336F000E356F000E346F84
:100A08003F51F1EC0DF00AD0020E0101336F40C1E5
:100A180034F141C135F13F51F1EC0DF00001AB511A
:100A2800955DD8A004D001013F05D8B409D00001D4
:100A38009551BA5DD8A00ED001013F51D8A40AD073
:100A4800030E336F000E356F000E346F3F51F1EC1B
:100A58000DF00AD0030E0101336F40C134F141C1DA
:100A680035F13F51F1EC0DF00001AC51965DD8A085
:100A780004D001013F05D8B409D000019651BB5DEF
:100A8800D8A00ED001013F51D8A40AD0040E336F6C
:100A9800000E356F000E346F3F51F1EC0DF012006F
:100AA800040E0101336F4AC134F14BC135F13F5196
:100AB800F1EC0DF012000001A451935DD8A004D010
:100AC80001013F05D8B409D000019351B35DD8A006
:100AD8000ED001013F51D8A40AD0010E336F000E89
:100AE800356F000E346F3F51F1EC0DF01200010E1E
:100AF8000101336F40C134F141C135F13F51F1EC8F
:100B08000DF0120000019F51935DD8A004D001019F
:100B18003F05D8B409D000019351AE5DD8A00ED0DE
:100B280001013F51D8A40AD0010E336F000E356F72
:100B3800000E346F3F51F1EC0DF00AD0010E0101A7
:100B4800336F40C134F141C135F13F51F1EC0DF043
:100B58000001A051945DD8A004D001013F05D8B48C
:100B680009D000019451AF5DD8A00ED001013F51CA
:100B7800D8A40AD0020E336F000E356F000E346F02
:100B88003F51F1EC0DF01200020E0101336F40C12C
:100B980034F141C135F13F51F1EC0DF012004251F1
:100BA800010AD8B4D9D6020AD8B485D7060AD8A477
:100BB8001200A8D734EC0FF020D1010E326F010ECD
:100BC800DDEC09F0010E0101326F020EDDEC09F0D7
:100BD800010E0101326F030EDDEC09F0010E010177
:100BE800326F040EDDEC09F0010E0101326F050EC3
:100BF800DDEC09F0010E0101326F060EDDEC09F0A3
:100C08001200010E326F030EDDEC09F0010E010136
:100C1800326F040EDDEC09F01200010E326F050E82
:100C2800DDEC09F0010E0101326F040EDDEC09F074
:100C3800010E0101326F070EDDEC09F0010E010112
:100C4800326F010EDDEC09F0010E0101326F020E68
:100C5800DDEC09F01200010E326F050EDDEC09F033
:100C6800010E0101326F040EDDEC09F0010E0101E5
:100C7800326F070EDDEC09F0010E0101326F030E31
:100C8800DDEC09F0010E0101326F020EDDEC09F016
:100C98001200010E326F060EDDEC09F0010E0101A3
:100CA800326F040EDDEC09F0010E0101326F070E00
:100CB800DDEC09F0010E0101326F030EDDEC09F0E5
:100CC8001200010E326F050EDDEC09F0010E010174
:100CD800326F060EDDEC09F0010E0101326F070ECE
:100CE800DDEC09F0010E0101326F030EDDEC09F0B5
:100CF800010E0101326F020EDDEC09F01200010E47
:100D0800326F050EDDEC09F0010E0101326F060E9F
:100D1800DDEC09F0010E0101326F010EDDEC09F086
:100D2800010E0101326F020EDDEC09F0010E010126
:100D3800326F030EDDEC09F0010E0101326F070E70
:100D4800DDEC09F01200010E326F050EDDEC09F042
:100D5800010E0101326F040EDDEC09F0010E0101F4
:100D6800326F030EDDEC09F01200010E326F010E36
:100D7800DDEC09F0010E0101326F020EDDEC09F025
:100D8800010E0101326F030EDDEC09F0010E0101C5
:100D9800326F040EDDEC09F0010E0101326F050E11
:100DA800DDEC09F0010E0101326F060EDDEC09F0F1
:100DB800010E0101326F070EDDEC09F01200010E81
:100DC800326F030EDDEC09F0010E0101326F040EE3
:100DD800DDEC09F0010E0101326F050EDDEC09F0C2
:100DE800010E0101326F060EDDEC09F0010E010162
:100DF800326F070EDDEC09F0120037C132F138C14D
:100E080033F1000E0101356F0A0E346F95EC0DF0C9
:100E18003351000AD8A412003251000AD8B4CDD6F2
:100E2800010AD8B4EED6030AD8B4F7D6010AD8B462
:100E380012D7070AD8B42DD7010AD8B442D7030A63
:100E4800D8B45DD7010AD8B47ED70F0AD8B48DD7E5
:100E5800010AD8A41200B3D70101346F34EC0FF0A3
:100E680054D0010E326F010EDDEC09F0010E0101C4
:100E7800326F030EDDEC09F0010E0101326F040E32
:100E8800DDEC09F0010E0101326F060EDDEC09F010
:100E9800010E0101326F070EDDEC09F01200010EA0
:100EA800326F010EDDEC09F0010E0101326F020E06
:100EB800DDEC09F0010E0101326F050EDDEC09F0E1
:100EC800010E0101326F060EDDEC09F0010E010181
:100ED800326F070EDDEC09F01200010E326F010EC1
:100EE800DDEC09F0010E0101326F020EDDEC09F0B4
:100EF800010E0101326F050EDDEC09F0010E010152
:100F0800326F060EDDEC09F0120001013451430A7C
:100F1800D8B4E3D7060AD8B4C2D70D0AD8A41200A9
:100F2800A0D7036E44EC0FF049D0010E016E010EFC
:100F380021EC0AF0010E016E030E21EC0AF0010EFD
:100F4800016E040E21EC0AF0010E016E060E21EC72
:100F58000AF0010E016E070E21EC0AF01200010ED4
:100F6800016E010E21EC0AF0010E016E020E21EC59
:100F78000AF0010E016E050E21EC0AF0010E016E59
:100F8800060E21EC0AF0010E016E070E21EC0AF0A4
:100F98001200010E016E010E21EC0AF0010E016E25
:100FA800020E21EC0AF0010E016E050E21EC0AF08A
:100FB800010E016E060E21EC0AF012000350430ADE
:100FC800D8B4E7D7060AD8B4CAD70D0AD8A41200ED
:100FD800ACD7F2A253D03428010B346E3450D8A4C5
:100FE8000AD0480E95EC07F0030E026EE80E016E6B
:100FF8003FEC0EF00AD03404D8A404D0430E95EC8C
:1010080007F003D0450E95EC07F03204D8A418D0A9
:1010180033503CEC0FF03B6E3B5055EC0BF015C0D9
:1010280038F016C039F038C0E8F039C0E9F03C5063
:10103800385C0001E66F3D503958E76F000E326E9C
:101048003104D8A418D040503CEC0FF03A6E3A5016
:1010580055EC0BF015C036F016C037F036C0E4F08A
:1010680037C0E5F03C50365C0001E26F3D50375820
:10107800E36F000E316E4CEC0FF0F29242921100C9
:101088003F6F480E5BEC0FF03FD00001B7515BECAF
:101098000FF00001B8515BEC0FF00001B9515BECA7
:1010A8000FF00001BA515BEC0FF00001BB515BEC93
:1010B8000FF035D00001B2515BEC0FF00001B351D5
:1010C8005BEC0FF00001B4515BEC0FF00001B5517F
:1010D8005BEC0FF00001B6515BEC0FF020D0000183
:1010E800AD515BEC0FF00001AE515BEC0FF000016D
:1010F800AF515BEC0FF00001B0515BEC0FF0000159
:10110800B1515BEC0FF00BD001013F51000AD8B48C
:10111800BCD7020AD8B4CED7060AD8B4E0D7480E4E
:101128005BEC0FF0B8EC0EF01200000E426F40AF0F
:1011380008D0401F3F1F3E6D000E3F234023010E85
:10114800426F3DAF08D03D1F3C1F3B6D000E3C2356
:101158003D23010E421B000E436F000E446F000E2C
:10116800456F3E513F114011D8B423D0010E416F55
:1011780005D0D8903E373F374037412B40AFF9D79D
:10118800D8904337443745373E513B5D3F513C5932
:1011980040513D59D8A007D03E513B5F3F513C5B81
:1011A80040513D5B4381D89040333F333E33412F1C
:1011B800E7D74251D8B406D0451F441F436D000EEF
:1011C8004423452343C13BF144C13CF145C13DF1B2
:1011D8001200000ECD6FCBAF08D0CB1FCA1FC96D50
:1011E800000ECA23CB23010ECD6FC8AF08D0C81F8D
:1011F800C71FC66D000EC723C823010ECD1B000EE6
:10120800CE6F000ECF6F000ED06FC951CA11CB112F
:10121800D8B423D0010ECC6F05D0D890C937CA37BF
:10122800CB37CC2BCBAFF9D7D890CE37CF37D037F9
:10123800C951C65DCA51C759CB51C859D8A007D0A2
:10124800C951C65FCA51C75BCB51C85BCE81D89024
:10125800CB33CA33C933CC2FE7D7CD51D8B406D056
:10126800D01FCF1FCE6D000ECF23D023CEC0C6F027
:10127800CFC0C7F0D0C0C8F01200000E116E0FAE7C
:1012880008D00F1E0E1E0D6C000E0E220F22010E2E
:10129800116E0CAE08D00C1E0B1E0A6C000E0B2231
:1012A8000C22010E111A000E126E000E136E000EA3
:1012B800146E0D500E100F10D8B423D0010E106EFE
:1012C80005D0D8900D360E360F36102A0FAEF9D746
:1012D800D8901236133614360D500A5C0E500B583F
:1012E8000F500C58D8A007D00D500A5E0E500B5A5C
:1012F8000F500C5A1280D8900F320E320D32102E29
:10130800E7D71150D8B406D0141E131E126C000E65
:101318001322142212C00AF013C00BF014C00CF0F0
:1013280012003C513E5D3D513F59D8B039D0D30EE3
:10133800326F000E336F000E346F3E513C5D406FCC
:101348003F513D59416F40C135F141C136F1376BCD
:101358000DEC0DF032C142F133C143F134C144F117
:1013680042C132F143C133F144C134F1FF0E406F41
:10137800030E416F3E51405F3F51415B40C135F123
:1013880041C136F1376B36EC0CF032C147F133C14D
:1013980048F12C0E4725476F010E4821486F04D0AD
:1013A800000E486F000E476F47C13CF148C13DF140
:1013B8001200336F2AD032B102D0839801D08388CB
:1013C800120032B102D0839A01D0838A120032B15E
:1013D80002D0839C01D0838C120032B102D0839E4C
:1013E80001D0838E120032B102D0819001D0818069
:1013F800120032B102D0819201D08182120032B142
:1014080002D0819401D08184120001013351010A74
:10141800D8B4D1D7030AD8B4D4D7010AD8B4D7D707
:10142800070AD8B4DAD7010AD8B4DDD7030AD8B482
:10143800E0D7010AD8A41200E2D7026E2AD001B080
:1014480002D0839801D08388120001B002D0839A19
:1014580001D0838A120001B002D0839C01D0838C12
:10146800120001B002D0839E01D0838E120001B019
:1014780002D0819001D08180120001B002D0819207
:1014880001D08182120001B002D0819401D0818400
:1014980012000250010AD8B4D2D7030AD8B4D5D75B
:1014A800010AD8B4D8D7070AD8B4DBD7010AD8B408
:1014B800DED7030AD8B4E1D7010AD8A41200E3D7CB
:1014C800640ED36502D0640E04D00A0ED36102D034
:1014D8000A0ED36F640E206E000E216E000E226E6F
:1014E800D1C01DF0D2C01EF01F6A51EC0DF01DC016
:1014F800C6F01EC0C7F01FC0C8F0D351C96FCA6B71
:10150800CB6BEDEC08F0C6C0D6F0C7C0D7F0C8C0AA
:10151800D8F0D8BF0CD0D85104E1040ED75DD8A0BC
:1015280006D0FF0ED66F030ED76F000ED86FD6C049
:10153800D4F0D7C0D5F0D4C0D1F0D5C0D2F01200C5
:1015480029D000019251B75DD8A012D09351B85D4F
:10155800D8A00ED09451B95DD8A00AD09551BA5DE3
:10156800D8A006D09651BB5DD8A002D0010E01D0FC
:10157800000E0101366F20D000019351B35DD8B041
:10158800F5D7F6D700019351AE5DD8A0F1D79451A5
:10159800AF5DF5D732C134F133C135F13551000AA9
:1015A800D8A40AD03451010AD8B4CBD7020AD8B487
:1015B800E3D7060AD8B4E6D7365112004D6F640E49
:1015C80001014D6504D0030E4C6F4B692CD0070EFA
:1015D8004D6105D0000E4C6F0A0E4B6F24D0FF0EE4
:1015E800356F030E366F000E376F4D51326F336B08
:1015F800346B0DEC0DF032C13BF133C13CF134C119
:101608003DF1640E3E6F000E3F6F000E406F99EC87
:1016180008F03BC148F13CC149F13DC14AF148C11C
:101628004BF149C14CF14BC146F14CC147F1120095
:10163800DA0EF66E1C0EF76E000EF86E00EE9EF0D7
:1016480010EE28F00900F5CFEEFFE550E150FAE181
:10165800D00EF66E1E0EF76E000EF86E00EE3CF021
:1016680010EE06F00900F5CFEEFFE550E150FAE183
:1016780001EE00F0320EEE6AE806FDE100EE60F0E1
:101688003E0EEE6AE806FDE100EE27F00F0EEE6A68
:10169800E806FDE142904292000EF86E0001BDEFAF
:1016A80000F0176E640E176404D0030E1C6E1B68DE
:1016B8002CD0070E176005D0000E1C6E0A0E1B6E8C
:1016C80024D0FF0E046E030E056E000E066E175032
:1016D800016E026A036A73EC0DF001C00AF002C0E1
:1016E8000BF003C00CF0640E0D6E000E0E6E000EB3
:1016F8000F6E41EC09F00AC018F00BC019F00CC0CD
:101708001AF018C01BF019C01CF01BC015F01CC043
:1017180016F01200000ED66ED58ED6CF3AF1000123
:101728009D51600FD96EDA6ADE04D8A422D0000E6B
:101738009D25D96EDA6A010EDA22DF500101396F70
:1017480000019D51600FD96EDA6A000EDF6E010E3E
:101758009D250101326F336B000E3323C5C034F170
:10176800356BC6EC0BF0325100019D6F01013A69EF
:1017780003D0000E0101396F9B0E3A65CED7D59E76
:1017880039511200000E376F33AF06D0326D331F58
:10179800D8B0332B010E376F35AF04D0346D351FF9
:1017A800D8B0352B34513511D8B418D0010E366F56
:1017B80004D0D89034373537362B35AFFAD7345173
:1017C800325D35513359D8A004D03451325F355188
:1017D800335BD89035333433362FF1D73751D8B4FB
:1017E80004D0326D331FD8B0332B32C132F133C13C
:1017F80033F11200000E226E1EAE06D01D6C1E1EA6
:10180800D8B01E2A010E226E20AE04D01F6C201EF6
:10181800D8B0202A1F502010D8B418D0010E216E3D
:1018280004D0D8901F362036212A20AEFAD71F5070
:101838001D5C20501E58D8A004D01F501D5E20509B
:101848001E5AD89020321F32212EF1D72250D8B4F8
:1018580004D01D6C1E1ED8B01E2A1DC01DF01EC04F
:101868001EF01200000E386F000E396F000E3A6F2E
:10187800355136113711D8B423D0010E3B6F05D03E
:10188800D8903537363737373B2B37AFF9D7D8901D
:10189800383739373A373551325D36513359375140
:1018A8003459D8A007D03551325F3651335B3751A0
:1018B800345B3881D8903733363335333B2FE7D70D
:1018C80038C132F139C133F13AC134F112000001A3
:1018D8009D51600FD96EDA6ADF50D8B4F8D7000E80
:1018E8009D25D96EDA6A010EDA22DF500101386FC0
:1018F80000019D51600FD96EDA6A000EDF6E010E8D
:101908009D250101326F336B000E3323C5C034F1BE
:10191800356BC6EC0BF0325100019D6F0101385157
:101928001200000E0001C86F000EC76F2550261068
:10193800D8B41CD0010EC66F04D0D89025362636F0
:10194800C62B26AEFAD7D890C737C8372550235CA0
:1019580026502458D8A005D02550235E2650245A56
:10196800C781D89026322532C62FEDD7C7C023F0BD
:10197800C8C024F01200000E3E6F000E3D6F3A51B1
:101988003B11D8B41CD0010E3C6F04D0D8903A3724
:101998003B373C2B3BAFFAD7D8903D373E373A51CF
:1019A800385D3B513959D8A005D03A51385F3B5181
:1019B800395B3D81D8903B333A333C2FEDD73DC15D
:1019C80038F13EC139F1120000019B5106E19A2914
:1019D800D8B003D034EC0FF009D0FE0E9A5D010E9A
:1019E8009B59D8B003D0430E30EC07F000019A4B56
:1019F8009B2B9AC032F19BC033F1010E0101356F68
:101A0800FE0E346F95EC0DF032C19AF033C19BF0A5
:101A18001200000E386F000E396F000E3A6F32A1B7
:101A280006D0355138273651392337513A23D890C3
:101A3800353736373737D89034333333323332513A
:101A480033113411D8A4EBD738C132F139C133F18D
:101A58003AC134F112003251345D33513559D8B09E
:101A680006D03451325D366F355133590BD034516D
:101A7800325D35513359D8B007D03251345D366FA5
:101A880033513559376F04D0000E376F000E366F5B
:101A980036C132F137C133F11200000E236E000E49
:101AA800246E000E256E1DA006D02050232621503E
:101AB800242222502522D890203621362236D8904A
:101AC8001F321E321D321D501E101F10D8A4EBD716
:101AD80023C01DF024C01EF025C01FF01200000E08
:101AE800076E000E086E000E096E01A006D00450A5
:101AF80007260550082206500922D89004360536D4
:101B08000636D89003320232013201500210031017
:101B1800D8A4EBD707C001F008C002F009C003F051
:101B2800120034513511D8B418D0010E366F04D0D4
:101B3800D89034373537362B35AFFAD73451325D34
:101B480035513359D8A004D03451325F3551335B05
:101B5800D89035333433362FF1D732C132F133C10F
:101B680033F11200C282C2B2FED7C4CF20F0C3CF75
:101B78001FF020501E6E1D6A1F501D242F6E000E70
:101B88001E20306EC4CF20F0C3CF1FF020501E6E31
:101B98001D6A1F501D242D6E000E1E202E6E120071
:101BA80032513311D8B41200000E366F000E356F63
:101BB8000DD00D0E0101346FFB0EE82EFED7342F29
:101BC800FCD700F000F00101354B362B3251355D62
:101BD80033513659D8B01200ECD7376F35C138F1C8
:101BE80034C139F133C136F10101D8903637D89074
:101BF80036373741E842C00B3611381180093A6F41
:101C08003A515BEC0FF0010139515BEC0FF0120017
:101C18000101336F640E0101356F3229D8B406D043
:101C28000DD0320E01D0640E366F0AD033514D0AF2
:101C3800D8B4F9D7190AD8B4F4D702D032C136F1DA
:101C48003651120096849282B882B980998299900E
:101C5800999A9998C29AC288C286C294C19EC19C18
:101C6800C188C08EC09CC09AC098C096C094C082DB
:101C7800C090C280120001500210D8B41200000EA9
:101C8800056E000E046E09D00D0E036EFC0EE82ED4
:101C9800FED7032EFCD7044A052A0150045C0250E3
:101CA8000558D8B01200F0D7336F33C1A9FF32C13D
:101CB800A8FFA69EA69CA684F29EF29C550EA76E2F
:101CC800AA0EA76EA682A6B2FED7F28EF28CA694B2
:101CD800120005848405056EC8A0F5F5F5AAF5F58A
:101CE800F5F5055005056E05A0F5F5F5051E32322A
:101CF800FFEFEEDDCCBBAA03023232513403F3CF3F
:101D080036F1F4CF37F132513503F35037273351D9
:101D18003403F350372736C132F137C133F112009B
:101D28001D501F02F3CF21F0F4CF22F01D502002E6
:101D3800F35022261E501F02F350222621C01DF008
:101D480022C01EF01200000E3C6F3C51FBEC0EF05E
:101D58003B6F3C51920FD96EDA6A3BC1DFFF3C2BD7
:101D6800040E3C65F2D71200000E01013E6F3E05DD
:101D7800D8B403D03E51C6EC0EF03E2B040E3E659F
:101D8800F6D712003B6F01013B51EEEC0EF03C6FB1
:101D98003C390F0B010B3D6F3D05D8B41200F3D74A
:101DA800CD8ED80ECF6EEF0ECE6ECD9ACD98CD9645
:101DB800CD929D809F90CD801200150EAF6EAA9691
:101DC800AC84AC98AB8EAC8A948C948EAB889D8A8C
:101DD8009F9A1200396F4B0E5BEC0FF001013951DD
:101DE8005BEC0FF06BEC0CF03A6F3A511200396F64
:101DF800450E5BEC0FF0010139515BEC0FF06BEC19
:101E08000CF03A6F3A5112003251345D3351355962
:101E1800D8B002D0010E01D0000E366F3651120034
:101E280038C13AF139C13BF13B515BEC0FF001018C
:101E38003A515BEC0FF01200B89092909598959AF1
:101E4800959C959E9390939293949386120001018A
:101E5800326F32C1A9FFA69EA69CA680A850120088
:101E68008398839A839C839E8190819281941200A7
:101E7800016E01C0A9FFA69EA69CA680A8501200CC
:101E88008398839A839C839E819081928194120087
:101E9800000E026EAE50022A040E0264FBD7120036
:101EA800D58CD59AD596D584D582D59012000101C6
:101EB800326F32C1ADFFACB21200FDD7D08EF28EB8
:101EC800F28CF288F18C120033006464010AF298F3
:041ED800F292120070
:020000040020DA
:08000000FFFFFFFFFFFFFFFF00
:020000040030CA
:0E000000FFC60F3E3C9981FF0FC00FE00F407E
:00000001FF
